:020000040800F2
:1000000000500020553500089B3500089D3500083C
:100010009F350008A1350008A33500080000000046
:10002000000000000000000000000000A5350008EE
:10003000A735000800000000A9350008AB3500080E
:10004000AF350008B1350008B3350008B5350008F4
:10005000B7350008B9350008BB350008BD350008C4
:10006000BF350008C1350008C3350008C535000894
:10007000C7350008C9350008CB350008CD35000864
:10008000CF350008D1350008D3350008D535000834
:10009000D7350008D9350008DB350008B51D000844
:1000A000DF350008E1350008E3350008E5350008D4
:1000B000E7350008E9350008EB350008ED350008A4
:1000C000EF350008F1350008F3350008F535000874
:1000D000F7350008F9350008FB350008FD35000844
:1000E000FF350008013600080336000810B5054C3E
:1000F000237833B9044B13B10448AFF300800123D4
:10010000237010BDD000002000000000A869000886
:10011000084B10B51BB108490848AFF300800848E8
:10012000036803B910BD074B002BFBD0BDE810409E
:10013000184700BF00000000D4000020A869000894
:10014000C400002000000000154B002B08BF134B1B
:100150009D46A3F5803A00218B460F461348144A6A
:10016000121A03F007FC0F4B002B00D098470E4BE0
:10017000002B00D098470020002104000D000D48FE
:10018000002802D00C48AFF3008003F0CDFB200024
:10019000290001F041FB03F039FA00BF000008001C
:1001A000005000200000000000000000D0000020EF
:1001B000FC040020000000000000000010B5074B08
:1001C0001C7BC4F3800424B9054802F045FC20469A
:1001D00010BDBDE8104000F061BD00BFF00100207F
:1001E000006000082DE9F04F93B001F05FFEA24CD3
:1001F000A24A2368C01A904200F20981DFF8B0A237
:100200000623D1460F93EFF3108272B69AF80930A5
:10021000DBB282F3108813B913B0BDE8F08F0F9BE7
:10022000013B13F0FF030F93F6D0954B13B1012060
:10023000AFF30080EFF3108272B6EFF3108372B663
:100240009AF80940E4B283F31088002C4DD182F370
:1002500010888C4DEB78DE08192E03F0040328BFBC
:10026000192603F0FF02002B6BD106F1070B2B7947
:10027000844F0C936B79A9790E920B932A78AB7803
:10028000384695F8018009920A930D9102F05EF9C3
:100290000C9B0E9A03F007010C910B99003202910E
:1002A0000D9918BF012200910C995B0906900592E7
:1002B0000191039304960A9B099A4146724802F001
:1002C000CBFBA34540D1F97801F0030102294FD0BF
:1002D0006B4B2BB16D20AFF30080F97801F0030177
:1002E00002226A4802F0B8FB8DE799F8081099F8E5
:1002F000093099F80000CB1A034493FBF0F100FB9E
:100300001133D9F80400DBB203EB4313C11882F3B5
:1003100010880C4600299CD0C45C01312246594803
:1003200003F07AFDEFF3108172B6EFF3108272B62C
:1003300099F80930DBB282F3108883B981F3108811
:1003400087E74FF0200B92E74D4B13B16C20AFF3D2
:1003500000805A4621464E4802F07EFB53E799F84A
:100360000930013BDBB289F8093081F3108870E76E
:10037000484B099A5B78DFF81CB1934226D0454B75
:100380001A78904506D0099908F1030002F0CEFBD7
:10039000404B1A78404B40495B7B43F080034B73E2
:1003A0000A9B934215D00A9BFF2B3BD03A4B1B7BF9
:1003B0005A077FF528AF394802F04EFB0C9B032B00
:1003C00000F0DE802F4800F069FC1CE79BF800205D
:1003D000E0E7EB782E44DA08192A28BF192203F047
:1003E000070343EAC2022B7900211F07F171EA706B
:1003F00060D403F0100202F0FF01002A38D10C9AF9
:10040000032A00F0D7801F4802F076FEFBE601F0D9
:100410004DFD206002F02EFC00286ED0204802F036
:100420001BFBEBE61F4802F017FB0C9B032B6BD06A
:10043000184B099A5B7893427FF4E5AE154B1B7815
:10044000434500F0B280144B1B7B590740F1AD804F
:10045000154802F001FB0B4800F020FC0C9B032B1D
:100460003FF4D1AE0B4B099A5B789342CBD0CAE6EE
:100470000E4802F0F1FAC6E7EC000020A0BB0D0028
:1004800000000000C80100202C6000088060000807
:1004900068600008EC010020F001002020620008E4
:1004A000206000088C610008706200087C61000810
:1004B00000020020BC4FBD4E3C46BD4802F0CCFAC5
:1004C0000FCE0FC40FCE0FC43B79BA4A31681278F1
:1004D00023F0080343F0100338463B7121707A7013
:1004E00087F80280FFF76AFE16F81C3C03F0100242
:1004F00002F0FF01002A82D0BAE7AF4802F0ACFA5E
:10050000AE4800F039FE79E6AD4B1B7B580703D5AA
:100510000B9B072B00F0B6800B9B082B3FF473AEB0
:10052000142B85D1A34B099A5B7893427FF46BAE71
:1005300001F0BCFC4FF47A73C0F3090003FB00F038
:1005400008B101F02FF99B4BDFF85CB219789BF8EA
:1005500004208BF80110FF218BF8061002F0E00256
:10056000152142F003028BF80510584659788BF894
:1005700004208BF8028002F089F900F08FFB57E726
:100580000B9B183B012B3FF61DAF02F09FF8FE2896
:1005900004463FF417AF01468A4802F05DFA611C39
:1005A000C9B2824802F072F90CE70C9B032B7FF46E
:1005B0002AAF28E66A797D48A2F10F04022C7FF663
:1005C00022AE0B9C042C00F089810B9C082C00F0BF
:1005D00062810B9C182C00F036810B9C192C00F0CA
:1005E00020814178002940F018810D2A3FF40BAE9C
:1005F0001B2A00F0C180062A00F0B681132A00F001
:10060000B081122A00F07F81012A00F070810A2A4D
:1006100000F080821C2A7FF4F6AEEB79522B00F0BA
:10062000B48103F0EF02462A00F0E6814D2B00F082
:10063000E381452B7FF4E7AD5B4B9BF800101A7903
:10064000597002F0E00242F003021C2518465E4990
:10065000FF2600245D719E711A719C7002F026F9CC
:10066000FFF7ACFD40F29D152046FF21013402F05A
:100670005DFAAC42F8D1554B13B10B20AFF30080BB
:1006800002F082FA4B4B5B7843453FF4BCAD4146E8
:100690004F4802F0E1F901F009FC42F20F72484BB9
:1006A0009B68C01A904231D84A4802F0D5F9DFF869
:1006B000F8B001F0FBFB424B9860474802F0CCF9E0
:1006C00001F0F4FB4FF47A72C0F3090002FB00F072
:1006D00008B101F067F8374B9BF80420187802F056
:1006E000E00242F00302FF218BF804208BF80100A6
:1006F00008228BF806102C4899788BF805208BF887
:10070000028002F0C3F800F0C9FA7CE52C4B1A7B9A
:10071000C2F3C002D4B24CB1304802F09DF9304867
:1007200002F09AF92F4802F097F96CE521462E481D
:10073000099202F091F91F4B099A1E78002E40F0A1
:100740007E811F4B1E4A1B7BDFF85CB066F3C30340
:100750009673137301F0AAFB194B9860234802F0BB
:100760007BF9144B99788E42A3D03246204802F090
:1007700073F9104B9E709CE75B09012B48D0002B4E
:100780003CD000211B4C637861F3000363700F4B76
:100790002BB10A20AFF30080617801F00101164807
:1007A00002F05AF92FE500BF70010020C8010020B7
:1007B00098600008EC010020106000080000002094
:1007C000F0010020346200085C61000800000000B5
:1007D000986100084C62000860620008C46100086B
:1007E000FC6100080C620008B0610008D8610008D4
:1007F000E4610008300200203861000811A90A22D3
:10080000B64803F043FAC0B2011C18BF0121B9E792
:10081000E979003118BF0121B4E71A2A7FF4F3AD5A
:10082000F1E4AF4B1B7B1C0731D5AD4A61F3C30329
:10083000137301F04BFF0346A94AAA481946937364
:1008400002F00AF9DFE401F041FFDFF8B8B2024636
:100850004146A54802F000F9A44B9BF80420187803
:10086000FF2102F0E00242F0030219248BF801009C
:100870008BF80610584601218BF804208BF8028073
:100880008BF8054002F002F800F008FABBE4984843
:1008900002F0E2F8B7E4924B1B7BDE0723D501F0B0
:1008A00015FFFF283FF4AFAC431CDBB2FF2B3FF436
:1008B000AAAC8E4A92789A427FF6A5AC884A127BFF
:1008C00095073FF5A0AC89481A468370874B41468F
:1008D000884883F8018002F0BFF894E401F0F6FE46
:1008E00000F0F8FB8FE4844802F0B6F88BE4834A0A
:1008F000002A3FF488AC5B09052B2FD043B30020BE
:10090000AFF300807FE401F0D1FADFF8F8B1744B67
:100910009BF803205968754B401A02F0070242F019
:100920002002CBF8070018788BF803200021FF2263
:100930008BF801008BF802108BF806201621A322F9
:1009400058468BF805108BF80420FFF737FC5AE463
:100950000A2211A9614803F099F9D1E7D5F80700F7
:10096000CEE701F0DFFF4EE4EB79002B00F00781CA
:10097000A3F14D03B3FA83F35B09614A194640F2D0
:100980000310137001F0BCFD3DE4002427465D4DCB
:10099000E01C02F0DBF8FF2806465FFA84F826D058
:1009A00002462146584802F057F82B794F4A03F087
:1009B000E00392F800E043F003034FF01C0C022226
:1009C00011A94FF0FF0B4F482B7185F801E085F816
:1009D00005C08DF844808DF84560AF7085F806B08D
:1009E00002F004F8FFF7EAFBC82001F005FF01342C
:1009F000B4F5807FCCD106E43C4BDFF808B1197820
:100A00009BF803208BF80110FF211C208BF80610A7
:100A100002F00702632142F010028BF805008BF808
:100A20000410584600218BF803208BF802108BF835
:100A300007108BF80810FFF7C1FBFFF7E4BBDFF8E6
:100A4000C4B0274B9BF804100A981F7B01F0E0010B
:100A500041F0030E98731821214B47F008078BF8DB
:100A600006008BF80510584601218BF802200992E8
:100A70001F738BF804E08BF8016001F007FF00F0B2
:100A80000DF901F013FA0746099A204E6A7101F038
:100A90000DFAC01BB0F5FA6F16D2ACB9104B1B7B28
:100AA000DB0601D5FFF79EFB4AF6AA222B793260BE
:100AB00003F00703032BEAD1154B5C79A4F1190469
:100AC000B4FA84F46409E2E7054B1A7B9E7B6FF36A
:100AD000C302FF2E1A737FF43DAE20E6CF01002043
:100AE000F0010020FC600008E0600008EC0100203C
:100AF00018610008AC600008C86000080000000031
:100B000030020020700100206061000800300040C9
:100B1000C8010020EB79432B7FF475AB194B13B15F
:100B20000D20AFF3008040F2031503242046FF217F
:100B3000013401F0FBFFAC42F8D1134801F08CFF07
:100B4000124BDFF850B019789BF804208BF8011095
:100B500000218BF80210FF218BF8061002F0E00252
:100B60000A2142F003028BF80510584608498BF819
:100B7000042001F09BFEFFF721FBFFF744BB01239C
:100B8000FBE600BF0000000050610008EC010020FF
:100B90005C6100087001002010B50C490C488B788E
:100BA0004A78097801F058FF0A4B0B485A7B197BA9
:100BB00002F08F02006841F004016FF30302197321
:100BC0005A7310B1BDE81040004710BDEC01002081
:100BD00084620008F00100203001002010B5194C9B
:100BE00082B0617B01F07003702B27D00B46C1F3FC
:100BF0000211013101F0070161F30613637312481A
:100C000001F02AFF237B114A03F0FB036FF3041367
:100C1000237312B16720AFF300800D4801F01CFF71
:100C20000C4A80200C4B50611B7802A9012201F86C
:100C3000013D202001F0B8FF02B010BDC1F3021148
:100C4000DDE700BFF0010020A46200080000000002
:100C5000B8620008000C0140F000002010B50B48FD
:100C600001F0FAFE0A4A0024137B946003F0F703B4
:100C70006FF30413137301F019F9064B2146BDE815
:100C8000104018600322044801F066BFC8620008E3
:100C9000F0010020EC000020EC0100202DE9F04FD5
:100CA000B14B89B093F80C80054618F0010886789E
:100CB0000CD0FF2E40F0A480DFF8D89299F80020E5
:100CC000EB782A705A0714D5202417E0002E40F044
:100CD0000B81DFF8C09299F80160A6F1FF08B8FA1D
:100CE00088F84FEA581899F80020EB782A705A07CC
:100CF000EAD4DC080734202C28BF20249B4B13B1F6
:100D00000020AFF30080DFF870B2994F4FF400027B
:100D10004FF0800AC7F880208220CBF814A000F0A2
:100D200041FD944808A990F800E001224EF0020E1F
:100D300001F801ED202001F037FF642000F032FDC2
:100D400008A901F8026D01222A2001F02DFF08A94F
:100D500001F8036D0122302001F026FF0022114628
:100D6000E12001F021FFFF2E14BFA020B020224679
:100D7000294601F019FF0022CBF810A01146FF20F0
:100D800001F012FF10F030004ED000221146FF207B
:100D900001F00AFF0446784A302308A980205061F8
:100DA00001F8043D0122272001F0FEFEE30600F1D8
:100DB000A68001F015FFAB792846C4F340142F79C3
:100DC00095F802B0049348EA040495F801806D791F
:100DD00001F0BCFBC7F3001E07F007070390049B5C
:100DE00002955A4641468DE88040644801F034FE41
:100DF00099F80130B3420BD0204609B0BDE8F08F1E
:100E00005F48002401F028FE204609B0BDE8F08FBD
:100E1000002C7AD02046544B534A5B7B6FF303037C
:100E2000537309B0BDE8F08F47F66012554C0123AB
:100E3000A28423804FF080422082218A0590C7F847
:100E40008021514A049707F1C047136007F50C57FA
:100E50004E4B0021D3E900AB4B4B8C461A68DFF8B0
:100E600038E14FF0804002E07B695B061CD420BF74
:100E7000238A9BB2002BF7D0BDF8143001212382C6
:100E8000238A049BC3F88001DEF8083053445B4298
:100E900023F07F431AEB030A4BF1000B013A18D4FD
:100EA0007B698C465B06E2D5BCF1000F54D100296A
:100EB00056D14021796104984FF400030022C0F814
:100EC00080311146FF2001F06FFE10F0300FBFD0CF
:100ED00002E02E4BC3E900AB2A4A002111802A4AC6
:100EE0004FF0FF33136050E7FF2E30D0F01C01F0BD
:100EF0002DFEFF2817D00646DFF89890DEE6002288
:100F00001146E12001F050FE53E7184B13B1652064
:100F1000AFF30080144B5B7B1A46013363F303028B
:100F2000114B5A7368E7DFF86C903146184801F0AE
:100F300093FD99F801302A789A423FF4D4AEA3F198
:100F4000FF08B8FA88F81E464FEA5818CBE64FF06B
:100F50000108DFF84090C6E60C4BC3E900ABA6E7FA
:100F6000094B1A60A5E700BFF00100200000000057
:100F700000E100E0F0000020000C014004630008E4
:100F8000D462000800080040F4000020280100207E
:100F9000EC620008EC01002010E000E0F8B5134816
:100FA00001F05AFD124B13B10820AFF30080114B32
:100FB000114C12491A79257B087802F0E0020021D1
:100FC000FF2658709970182742F0030245F0080573
:100FD000184601215F711A712573A6739E7101F085
:100FE00055FCBDE8F840FFF759BE00BF2863000874
:100FF0000000000070010020F0010020EC01002042
:10100000F8B5134C134801F027FD2378FF2B00D0CF
:10101000F8BD114B13B10620AFF300800F4801F06B
:101020001BFD0F4B27781A79032402F0E0022243BC
:101030000026FF2518460B495F709E709D715C71FC
:101040001A7101F033FCBDE8F840FFF727BE00BF7E
:10105000EC01002034630008000000003C6300083D
:1010600070010020D4610008F8B5144801F0F4FCC8
:10107000134B13B10420AFF30080124C124B217BB1
:10108000124D1A7901F0F9012F7841F0010102F0B7
:10109000E00221730726FF2442F0030218460C49A0
:1010A0005F705E711A71AC706C709C709C7101F015
:1010B000FDFBBDE8F840FFF7F1BD00BF4863000845
:1010C00000000000F001002070010020EC01002071
:1010D000D461000830B5431EDBB2FD2B83B004465B
:1010E0000ED90146174801F0B7FC174B13B16E201B
:1010F000AFF30080154BFF2200201A7003B030BD03
:1011000002A9032301F8013D104D114B01222220B9
:101110001C702C7001F048FD012502A92A4601F837
:10112000025D212001F040FD01F05AFD2146002022
:1011300001F0FCFC2146074801F08EFC284603B074
:1011400030BD00BF6863000800000000EC01002013
:10115000180000205463000810B5064C23685B6833
:1011600003B19847237BDB0600D410BDBDE81040D7
:10117000FFF738B8F001002010B5094C2368227B36
:1011800083421ABF03466FF34712203222731B6853
:1011900018BF206003B1984700F088FE606010BD62
:1011A000F0010020044B00215A7B04486FF3061223
:1011B0005A731960FFF7E0BFF00100202C000020F7
:1011C00010B500F073FE42F210744EF660210A4B27
:1011D0005A7B5B6802F07002702A0CBF0A462246F6
:1011E000C01A824200D310BD044801F035FCBDE8AE
:1011F00010400348FFF7C0BFF001002080630008E3
:101200002C00002008B5074B5B7B03F00F030A2B73
:1012100000D808BD044801F01FFCBDE808400348A1
:10122000FFF7AABFF001002094630008240000200B
:1012300038B51D4CA37BFF2B14D000F037FE1B4D9F
:10124000A0601B4801F008FCA978A27B8A4204D068
:10125000184801F001FCA37BAB701748BDE838408B
:10126000FFF78ABF00F022FE6368C01AB0F5FA6F7C
:1012700013D9237B5F2B11D9104801F0EDFB237BA1
:101280000F4A6FF3C303237312B16A20AFF30080D8
:10129000BDE838400B48FFF76FBF38BD0A48BDE8CE
:1012A0003840FFF769BF00BFF0010020EC010020CB
:1012B000B0630008BC63000810000020D46300087D
:1012C00000000000240000201C00002008B5174B7F
:1012D0001B78FF2B0CD0164801F0BEFB154B13B149
:1012E0000720AFF30080BDE808401348FFF744BF74
:1012F00000F0DCFD114A5368C01AB0F5FA6F14D93A
:10130000137B5F2B0CD90E4801F0A6FB094B13B1E0
:101310006920AFF30080BDE808400A48FFF72CBF02
:101320000948BDE80840FFF727BF08BDEC010020D1
:10133000E4630008000000001C000020F001002011
:10134000F0630008000000200800002010B500F045
:10135000ADFD1B4C6368C01AB0F5FA6F02D8237B51
:101360009B0724D5174B5B78FF2B0FD1237B5F2B7B
:101370001ED9154801F070FB144B13B16820AFF370
:101380000080BDE810401248FFF7F6BE114801F09A
:1013900063FB237B0D4A6FF30003237312B1052017
:1013A000AFF30080BDE810400B48FFF7E5BE10BD6D
:1013B0000A4801F051FBBDE810400948FFF7DCBEC8
:1013C000F0010020EC01002024640008000000006F
:1013D00000000020006400080800002010640008DD
:1013E000240000202DE9F04FDFF8B0E29E4C0C25E0
:1013F000E0238EF8005023704FF002056FF01E03BB
:101400009A4ADFF89CC2DFF89C82DFF89CA2DFF8E2
:101410009C92974FC2F800C05026964AF4200821AB
:101420008AF8005089F80000637088F8006039700D
:101430009169914B41F00C01916119688F4821F03D
:10144000704141F08051196041684FF0800C21F0EB
:10145000704141F080514FF400454160C3F814C021
:1014600005619169A0F5006041F009019161416851
:101470004FF0100C41F0010141601D6885B025F46A
:10148000704545F410451D601D680DEB0C0125F4F9
:10149000702545F400251D60C3F810C01D68DFF8F5
:1014A00010B225F4700545F410051D60D2F818C07F
:1014B00000254CF4805CC2F818C0DFF8F8C14FF486
:1014C0005572ABF80450ABF80020DCF81020A3F5FF
:1014D000006342F01002CCF81020D3F800284FF03F
:1014E000400C22F0706242F00062C3F80028C3F89A
:1014F00010C8C26822F4706242F48072C2609868B8
:10150000012220F040009860D3F80CC020204CF05D
:10151000400CC3F80CC0D3F800C04CF0400CC3F82A
:1015200000C09EF8003043F0020301F8013D01F0D5
:101530003BFB41F2883000F035F99AF800A004A98D
:10154000AAF1020301F8023D0122232001F02CFB45
:1015500099F8003004A901F8033D0122242001F08C
:1015600023FB98F8003004A901F8043D012225204E
:1015700001F01AFB3B7804A901F8053D0122262061
:1015800001F012FB04A9732301F8063D0122304645
:1015900001F00AFB04A9042301F8073D01223D20C4
:1015A00001F002FB01F066FB68B9354801F054FA1E
:1015B000344B13B16720AFF300803348FFF7DCFDF5
:1015C00005B0BDE8F08F4FF0020304A901F8083D13
:1015D0000122222001F0E8FA04A901F8095D0122A4
:1015E000212001F0E1FA04A9032301F80A3D0122B8
:1015F0003C2001F0D9FAFF23524621462B202370CC
:1016000001F0D2FA524621462A2001F0CDFA524684
:101610002146302001F0C8FA2A462946E22001F08E
:10162000C3FA2A462946E12001F0BEFA04A9702334
:1016300001F80B3D0122272001F0B6FA134801F012
:101640000BFA134A1349137B087843F01003FF2861
:10165000137303D0FFF73EFD0028AED00E48FFF70E
:101660008BFD05B0BDE8F08FF800002034010020AC
:10167000F100002000100240000C01400008014071
:1016800048640008000000000000002034640008E6
:10169000F0010020EC01002024000020F0000020D8
:1016A000B9160008F3000020FD000020F200002021
:1016B0000030014000ED00E0F8B5EFF3108272B6A3
:1016C000364C637A2078DBB282F3108883420BD1E8
:1016D000002001F0EDFA324A1378FF2B03D0137883
:1016E0000133DBB21370F8BDEFF3108172B6EFF384
:1016F000108272B6637ADBB282F31088984207D107
:1017000081F31088012001F0D3FA00231B70FFDE63
:10171000257A666805EB4515771981F31088781CE2
:1017200001F0C6FA7055EFF3108072B6EFF3108235
:1017300072B6637A2178DBB282F310888B4202D1D1
:1017400080F31088F8BD237A626803EB43131344D7
:10175000BB4214D007F12002D7F800C0D7F804E04C
:10176000BE68FD6810379742C3F800C0C3F804E0B4
:101770009E60DD6003F11003EED13A781A70237A8F
:101780005A1C92FBF1F301FB1323DBB22372637A41
:101790000133DBB2637280F31088F8BD00020020D1
:1017A00024010020184B4FF0000C1A462DE9F0419F
:1017B0004142012489B20138DFF85480DFF854E057
:1017C000124F9984000C1C804FF08046D8E90045E8
:1017D000A2F810C0138ACEF8806120BF138A0A498C
:1017E0009BB2002BF9D0BB68013823445B4223F045
:1017F0007F43E41845F10005431CE9D1C8E90045E1
:1018000000230B80BDE8F0810008004010E000E0FC
:101810002801002000E100E02DE9F0414FF6FF75BE
:10182000994B9A4C00266FF07F41052259609E60CB
:101830001A60E269964B0121964842F0040247275C
:10184000E2611E801F859D8599820269924D42F05A
:101850001002026199812B68904923F0070343F03D
:1018600001032B60A36941F2A10043F00103A361CE
:101870004B688B4A43F000734B60A3694FF40071CF
:1018800043F00103A361A3694FF4806743F00403AD
:10189000A36111615168834B21F0F00141F02001F7
:1018A0005160516821F4706141F400615160176129
:1018B000A269482742F480420821A2611F819E82CA
:1018C0001E8299816269784942F0010262619A89B7
:1018D000764F92B242F004029A819A8A744E92B282
:1018E00042F040029A8220224A608F60CE600860F7
:1018F0009A890A2092B242F400529A8103F026FC9F
:101900006C4B6D4A6D4912681B6809686C4803F09E
:1019100005FC6C4B6C48198803F000FC0A2003F0AE
:1019200015FC2168694803F0F9FB6168684803F019
:10193000F5FB616A674803F0F1FB2968664803F02C
:10194000EDFB0A2003F002FC636803F00C03082B94
:1019500040F0B98161686368C1F38341DD0301F13F
:10196000020103D56368980340F1C5815B4B03FB1B
:1019700001F1464B5A485A685A4EC2F30312845C2E
:101980005A6821FA04F4C2F30222875C5A68FFB253
:10199000C2F3C222855C5B685348C3F38133F65CB3
:1019A00003F0BCFB2146514803F0B8FB24FA05F5CF
:1019B00024FA07F14E4803F0B1FBF6B229464D4830
:1019C00003F0ACFBB5FBF6F14B4803F0A7FB0A2094
:1019D00003F0BCFB494803F027FC4AF6AA21484A19
:1019E000484B11600BB1AFF3008001F069FAD8B930
:1019F0004FF6FF72444B5B889BB293420FD0264B4D
:101A00004249434A59605A6001F016FA042801D04D
:101A100001F012FA204A136943F08003136101F0C8
:101A20004FFA002800F0518145F255504AF6AA2697
:101A3000334B0322154918605A601D468B69354A9D
:101A400043F008038B611368052423F4706343F4A7
:101A5000007313602E603048FFF7A4FE013CF9D1FB
:101A60002E4B40F2FF271D462D4969204FF400728E
:101A700008720B60CC604A60FF202B68013300F0D5
:101A80001A81A0F5007352E010E000E0001002405F
:101A90000008004000ED00E000200240000001408E
:101AA000000801400038014058000240043801405D
:101AB00004010020E8F7FF1FECF7FF1FF0F7FF1FFE
:101AC00068640008E0F7FF1F806400089464000861
:101AD000A8640008BC640008D064000800093D0048
:101AE0003400002044000020E46400080065000881
:101AF0001C6500083865000854650008706500081A
:101B0000003000400000000000F8FF1F230167457F
:101B1000AB89EFCD000C014020A1070000F80108BF
:101B20003801002003F58073834200F0C480002B4D
:101B3000ACBF1A4603F50072920002F1006202F592
:101B4000FC3212680132EDD1FE2BD4BF03F2011238
:101B5000A3F1FF02960006F1006404F5FC3424684A
:101B600002F1FF0E013408D0714C34440132724549
:101B7000D8DC54F8046B0136F8D1CA6000240C613B
:101B80006C4D00F00FFB002800F0B180F92000F050
:101B9000B9FA013003D12146F92000F06BFC664D03
:101BA000664E2F460024A4F16300C0B200F0AAFAEA
:101BB000421C08BF36F8143004F1010418BF83B288
:101BC000052C27F8023BEED15D4F0024B846A4F166
:101BD0005900C0B200F096FA431C08BF36F8143022
:101BE00004F1010418BF83B2052C28F8023BEED1A2
:101BF00040F2B11000F0CAFA10F0FF0F514A524BF8
:101C000067D115601F604FF6FF735049504811F8B7
:101C1000012B5BBA9BB25340C3F30312534083EAD8
:101C200003331AB2530103F4FF53534081429BB272
:101C3000EDD1484A48490B80536A48491C010B6062
:101C4000516A41F0807151624BD5454B00221A70A8
:101C5000444C454800F000FF637844486FF341036B
:101C6000637000F0F9FE20464AF6AA24012240F2F1
:101C7000031100F071FFFF21012000F057FFFFF773
:101C800091FA3B4A3B4B3C4D1A6000F085FD3B48C6
:101C900000F0E2FE01F0D6FB394B3A48197BC1F364
:101CA000800100F0D9FE2C6062B62C60FFF754FA78
:101CB00001F0FEFBF9E700F58070B84205F580659C
:101CC0007FF4DBAE5AE7304953E6304803F0ACFA14
:101CD000FEE7012140F2B11017601D6000F010FC1A
:101CE00091E7002B0BDA1E4B01221A70B0E728682F
:101CF00001F000F853E7244B03FB01F139E65800EB
:101D000003D5174B02221A70A2E7990003D5144B92
:101D100003221A709CE7DA0003D5114B04221A70D3
:101D200096E75B0194D50E4B05221A7090E700BF31
:101D300004F8010838010020C00400205C64000899
:101D4000E0040020B8040020D0040020E8F7FF1FC2
:101D5000F4F7FF1F00100240AE0400200001002035
:101D60004800002030020020B4650008E06500084B
:101D7000992A00083001002000300040F06500087A
:101D8000F00100200066000800127A008865000853
:101D900007490B89064A9B07FBD5114680B2908103
:101DA0000B89034ADB07FBD59089C0B2704700BF9F
:101DB0000030014010B50E4C82B0236813B90DE01D
:101DC0002368984701220021172000F033FFC30742
:101DD000F6D5084B40225A6102B010BD02A940233B
:101DE00001F8013D0122272000F0DEFEF1E700BFEF
:101DF0003401002000040140F0B441F29107254B6A
:101E0000254E1C467068254D20F0040070606868FF
:101E100006F5803620F0F00040F0A00068609D8A52
:101E20001F48ADB2443645F080059D82B060F16038
:101E30007260376099891B4889B241F040010026E1
:101E4000202599811E80C0F8845120BF2388114924
:101E50005B06FAD58B89144823F040031B041B0C46
:101E600000248B8104608B8A04F1804423F080037A
:101E70001B0404F584341B0C4FF400708B8220612A
:101E80006368104623F0F00343F020036360F0BC66
:101E9000704700BF003801400000014000080140C9
:101EA0000438014000E100E0440002404EF6041016
:101EB00030B40E4B0E4C9968D4E9002311444942CA
:101EC00021F07F41521843F1000395094FF4B67198
:101ED00001FB0351074D00FB03F0A5FB0151C4E9D1
:101EE000002330BC00EB9120704700BF10E000E001
:101EF00028010020D55204E9F0B4174F80EAE073BE
:101F00003946164E164DA3EBE07385FB0324DA1712
:101F1000C2EBA40202EB8204A3EB4403F45C13467D
:101F200001F8014B002AF0D1002810DB4B1EBB4208
:101F300008D9094A1878147803F8014902F8010B06
:101F40009A42F7D300230B701846F0BC70472D233C
:101F50000B700131EAE700BF940100201867000808
:101F600067666666F0B5354E83B0D6F80CE0D6F8F5
:101F700004C0CCEB0E039E450EDD3468002BACBFD5
:101F80001A4603EB0C0254F8225004EB8207013589
:101F900005D001339E45F1D1002003B0F0BD357A64
:101FA0005C1C85EA1225264CEDB2655D41EA0041D4
:101FB00082EA0502D2B2A25C03F1010382EA114275
:101FC000A25CB8BF6344F36082EA1123DBB2E35C36
:101FD00000254B40DBB2E45C4FF40050019541EA30
:101FE000046400F017FF042806D03868201AB0FAFD
:101FF00080F0400903B0F0BD124DA3B22A694FF43E
:10200000005042F001022A613B8000F003FF0428E7
:1020100005D041F6FE732A6913402B61E5E7BB1C2E
:102020000193019B220C1A804FF4005000F0F2FE45
:1020300041F6FE732A6913402B61D6E73801002070
:10204000186600080020024008B50A21134801F074
:1020500013FA0B21124801F00FFA0C21114801F07C
:102060000BFA0D21104801F007FA104B104A10210D
:1020700019705A60EFF3108272B60021197259720A
:1020800082F310880B4800F0CDFC0B4800F0CAFC2E
:10209000BDE80840094800F0C5BC00BF8C04002022
:1020A00034020020680400204C01002000020020BF
:1020B00058020020C8010020700100200C020020FE
:1020C000014610B50B4A0C4C0C4BA260A36023696F
:1020D0000B4A43F0100323614FF40050118000F0CD
:1020E00099FE052804D041F6EF732269134023615D
:1020F00010BD00BF2301674500200240AB89EFCD32
:1021000002F8FF1FF0B51F4BD968D3F804C0CCEB21
:1021100001060139B14231DBD3F800E01F7A1A4DD4
:1021200018E02C5D6240D2B2AA5C82EA1342D2B2BD
:10213000AA5C82EA1322D2B2AA5C5A40D2B2AA5C4A
:1021400083EA0263C3F30742824213D05A1C0FD0C2
:10215000B14213DB0029ACBF0A4601EB0C0287EA4F
:102160001223DCB25EF822300139B3F1FF3FD8D13F
:102170001846F0BD1A0EE9D198B2F0BD4FF0FF300D
:10218000F0BD00BF380100201866000810B50446F5
:10219000C0F34700FFF7B6FFE3074CBFC0B2C0F380
:1021A000072010BD2DE9F04FDFF8C482C5B0D8F884
:1021B00004A0D8F80C00D8F80090CAEB00034FF048
:1021C000000C03F58071002BACBF1A4603EB0A022A
:1021D00059F822200133013208BF0CF1010C8B4267
:1021E000F1D10DF113073B460DF20D15FF2203F857
:1021F000012F9D42FBD1461E664426F0FF0606F5E0
:1022000080765645A8BFCAEB06063246B30098F85A
:1022100008E0924C009303EB090000218EEA1223A0
:102220005FFA83FB03680430B3F1FF3F26D014F854
:102230000BB08BEA020B5FFA8BFB14F80BB08BEA46
:10224000134B5FFA8BFB14F80BB08BEA132B5FFA7E
:102250008BFB14F80BB08BEA030B5FFA8BFB14F8C3
:102260000BB083EA0B63C3F3074B1B0E06D1BBF124
:10227000F90F03D844AB9B440BF8FC1C0131FF2938
:1022800002F10102CAD1009B06F1FF0203F57F7340
:10229000029353F80930581C00F0AF806F498EEA62
:1022A0001220C0B2085C4240D2B28A5C82EA134279
:1022B000D2B28A5C82EA1322D2B28A5C5A40D2B28B
:1022C0008A5C83EA02631A0C01921B0ED2B203925B
:1022D00002D1F92A40F28C8006F58070CAEB00002A
:1022E00086422DDD5D4C4FF0FF0B0028ACBF02464F
:1022F00000EB0A028EEA1223D9B259F822300130DB
:10230000B3F1FF3F1AD0615C4A40D2B2A25C82EACC
:102310001342D2B2A25C82EA1322D2B2A25C5A4029
:10232000D2B2A25C83EA0263C3F307421B0E05D15B
:10233000F92A03D844AB1A4402F8FCBC8642D4D133
:102340003B46002113F8012FFF2A18BF01319D429F
:10235000F8D1C1EB0C010329C8F8101052DC002998
:1023600042DB3F4B994504D83E4B3F493F4A5960B9
:102370005A609DF80D31FF2B0AD0334459F82310D1
:10238000F920013189B2FFF7EDFD68B3D8F800906C
:102390009DF8043044AA134413F8FC2CFF2A0CD0F7
:1023A000029A039852F80910FF2289B203F8FC2C14
:1023B000FFF7D8FDC0B1D8F800900024494603E0EB
:1023C000D8F80010F92C21D017F8013FE0B2FF2B0C
:1023D00004F1010403EB0602F4D051F8221089B293
:1023E000FFF7C0FD0028EBD1002045B0BDE8F08F1D
:1023F00044A98A1802F8FC3C6EE74FF6FF7303917C
:10240000019369E7012045B0BDE8F08F4FF430201B
:10241000894600F0FFFC0428E6D1124C009B22699B
:102420004B4442F002022261636123694FF4302081
:1024300043F04003236100F0EDFC41F6FD73226997
:10244000042803EA02032361CED10023D8F8000058
:10245000C8F8103000F04EFC0120C6E718660008EE
:10246000FFFF07080020024023016745AB89EFCD3D
:1024700038010020F92870B502D90024204670BD2B
:102480000D460446FFF73EFEA84219D0174E184BE2
:1024900032689A421BD920462946FFF763FD04465D
:1024A00088B1134B32689A4204D8124A136943F038
:1024B0008003136133690D4D013B032B33610CDD48
:1024C0000124204670BD306800F014FCD6E7094BAB
:1024D00009490A4A59605A60DDE7FFF763FE04467E
:1024E0000028EDD1286800F005FCC7E7380100207E
:1024F000FFFF07080020024023016745AB89EFCDAD
:1025000070B5C0F34705064628460C46FFF7FAFDAE
:10251000F3074BBF00F47F41C1B2214341EA0421DC
:102520002846BDE87040FFF7A5BF00BF70B5CEB22A
:10253000851E00243019C0B235F8021FFFF79AFF3C
:10254000013408B1052CF5D170BD00BFF0B5047998
:1025500083B06409054637D0012C00F08E80022C30
:1025600000F08F80032C3CD0042C00F08F80052CD1
:102570005ED0072C00F08F80C378DB0800F09C80D1
:102580004E4E0023EC18E1795A0009110929C8B20E
:10259000D4BF00F1300100F13701B7183970E1798B
:1025A000013201F00F010929324494BF3031373133
:1025B0001170EA780133DBB2D2089A42E2D806EB16
:1025C00042060023337009E0C2783C4ED208304600
:1025D000E91D02F09BFEEB78DB08F454374803B0AA
:1025E000F0BD364EB0F807303146354D354F00E07E
:1025F00001460846A7FB0342D20802EB8204A3EB84
:102600004403EC5C134600F8014B002AF0D1B142C0
:1026100009D92A4B00E00C781A7801F8012903F84F
:10262000014B8B42F7D300230370244803B0F0BD65
:10263000224ED0F807303146214D224F00E00146AE
:102640000846A7FB0342D20802EB8204A3EB440333
:10265000EC5C134600F8014B002AF0D1B142E2D9FC
:10266000164B00E00C781A7801F8012903F8014BA9
:102670008B42F7D300230370D7E7C079FFF73CFC08
:10268000ACE7B0F90700FFF737FCA7E7D0F8070081
:10269000FFF732FCA2E7EC7AD0F80700082C28BF3D
:1026A000082401F045FD2346CDE900010222064938
:1026B000024802F007FE91E7004E82E794010020F5
:1026C00018670008CDCCCCCC2C6700080A480379E9
:1026D0005B09012B0DD00BB10020704700B583B012
:1026E0000A2201A9073001F0D1FAC0B203B05DF8A7
:1026F00004FBC079704700BFC801002010B50B4A29
:10270000037914780A4A4470527823F00F0343F097
:10271000010312F00104037104D1064800F09CF992
:10272000204610BDBDE81040FDF748BDEC0100207B
:1027300030020020346700082DE9F0478146FFF79A
:10274000B5FB134DB9FA89F30646AA464AF6AA28FC
:102750005B09104F6B710024FFF7A8FB801BB0F5DD
:10276000FA6F00D214B12046BDE8F087C7F80080A8
:10277000FEF7F2FC2B7903F00703032BECD19AF858
:102780000540C9EB0404B4FA84F46409E4E700BF2B
:10279000C80100200030004070B50021094800F059
:1027A0005BF94AF6AA26FFF781FB074D074CFFF7B6
:1027B0007DFBFEF7D1FC2B7B26605B07F7D5012064
:1027C00070BD00BF4C670008F001002000300040E1
:1027D000084BDA68D1070BD4DA68520701D502201A
:1027E0007047DB6813F0100F14BF032004207047FC
:1027F00001207047002002402DE9F0470446FFF712
:1028000055FB002C36D04FF47A7303FB00F8DFF849
:1028100078A008F51C58184F184E194D08F11008EB
:102820004FF00009B968DAE900231144494221F068
:102830007F41521843F1000303EB830101EBD20106
:10284000A5FB010106FB1380A0EB510008F51C5805
:10285000002809F10A09CAE9002308F1100801DD7E
:10286000FEF7A0FF4AF6AA22064B1A60FEF774FC98
:10287000A145D7D3BDE8F08710E000E0E3388E0330
:10288000398EE338003000402801002010B4C478AD
:10289000027904F0070402F01F0244F0080442F039
:1028A0002002C470C171027110BC704770B504463B
:1028B0000E4641B3084601F0CFFA182814D9192260
:1028C0001546E378217903F0070363F0370301F03D
:1028D0001F01E37021713146E01D02F017FD254410
:1028E0000023EB71204670BDE378227903F00703E3
:1028F00043EAC00302F01F020546E370227100287C
:10290000EDD0C2B2E7E70D460379C27803F01F03AA
:10291000037102F0070225440023C270EB712046C8
:1029200070BD00BF2C4B2DE9F04113B10C20AFF36B
:1029300000802A4C2A4F23793A7803F0E0030025DF
:10294000FF2643F003034FF00F082046254962702D
:102950002371A570A67184F80580FFF7A7FFE278C0
:10296000237902F0070203F01F0342F0100263F024
:102970003F0301212046E2702371E1712572FDF7CA
:102980001DFC4046FFF7D8FE23793978122223F048
:102990001F0361702046144962712371A570A671EE
:1029A000FFF784FFFDF70AFC23793A7803F0E00390
:1029B000797843F003030627204662702371A570DF
:1029C000A6716771FFF762FFFDF7F8FB3846BDE8B7
:1029D000F041FFF7B1BE00BF000000007001002011
:1029E000EC010020D46100085C67000838B504469B
:1029F000A1B1192A28BF1922D00045B2E078237965
:102A000000F0070003F01F03284363F03F03E0706A
:102A10002371E01D01F000FA204638BD0A460D463C
:102A2000ECE700BF002310B40224C47003704370AD
:102A30008370037143718371C0F80730C0F80B30A5
:102A4000C0F80F30C0F81330C0F81730C0F81B3092
:102A5000A0F81F3010BC70470FB430B5A1B024AC43
:102A600054F8045BFFF722FA0146094802F056FBCE
:102A70002A46234602A87821019402F085FC02A987
:102A8000044802F04BFB21B0BDE8304004B0704771
:102A9000646700086C6700082DE9F8431E4E7378E0
:102AA0009B0701D5BDE8F883FFF73CFF1B48FFF704
:102AB000D3FF1B4B13B10920AFF300807378194C7F
:102AC00043F00103DFF86090737004254FF00008B5
:102AD000FF27237999F800E003F0E00343F00303B4
:102AE0001A2202210F48237184F801E0627184F8F0
:102AF0000280A771FFF7CAFEFDF760FB1B20FFF7FE
:102B00001BFE013D10B915F0FF05E2D1737843F0CB
:102B100002037370BDE8F88330020020706700087C
:102B20000000000070010020EC01002038B584B2E4
:102B300020460D46FFF72AFBC0B2854205D0294644
:102B40002046BDE83840FFF7DBBC38BD08B580B291
:102B5000FFF71CFBC0B208BDA2B1F8B50D46144684
:102B6000471EAEB2C6F34700FFF7CCFAF3074CBFDF
:102B7000C0B2C0F30720013C07F8010F05F10105C1
:102B8000EFD1F8BD704700BFBFF34F8F0449054B2D
:102B9000CA6802F4E0621343CB60BFF34F8FFEE7D5
:102BA00000ED00E00400FA0570B516460B4B4FF43B
:102BB00000425A610C46FFF7EBF84EB1751EEDB2BC
:102BC0002544013C14F8010FFFF7E2F8AC42F9D1BB
:102BD000024B4FF400421A6170BD00BF0008014073
:102BE00000B5104B83B01B7802A943F0030301F832
:102BF000023D01222020FFF7D7FF0B4B1B78FF2B54
:102C000006D002A901F8013D01222A20FFF7CCFFDE
:102C10000649074B80204FF4000208611A6003B098
:102C20005DF804FBF000002018000020000C0140BB
:102C300000E100E00E4B70B50E464FF400415961C3
:102C40001446FFF7A5F83546034607E0FFF7A0F85E
:102C500003460EB128700135013CE4B2FF20002C80
:102C6000F4D1034A4FF400411161184670BD00BF12
:102C70000008014010B5012200210620FFF7DAFF0D
:102C8000094B01221C780021241AB4FA84F405208F
:102C9000FFF7D0FF054B64091B78834214BF002067
:102CA00004F0010010BD00BFF1000020F30000207F
:102CB00030B5012283B0054600216020FFF7BAFF3E
:102CC000202810D80446294622466120FFF7B2FF8B
:102CD00002A9402301F8013D01222720FFF764FFEC
:102CE000204603B030BD00221146E220FFF75CFF12
:102CF0000024E8E7044B984204D8044A136943F0DF
:102D000080031361704700BFFFFF070800200240E7
:102D100030B43C4B3C49186882B040F00100186068
:102D20005D6800202940596019684FF41F0421F0A4
:102D3000847121F48031196019681A4621F48021C8
:102D40001960596821F4FE0159609C60009001905F
:102D5000196841F48031196003E0009BB3F5A06F5E
:102D600009D0136803F400330193009B01330093EF
:102D7000019B002BF1D0234B1B6813F4003318BFC9
:102D800001230193019B012B06D0204B4FF00062E1
:102D90009A6002B030BC70471D4A1A4B1068194641
:102DA00040F010001060106820F003001060106800
:102DB00040F0020010605A685A605A685A605A68B7
:102DC00042F480625A605A6822F47C125A605A684F
:102DD00042F4E8125A601A6842F080721A600B6876
:102DE000084A9B01FBD51146536823F00303536047
:102DF000536843F0020353604B6803F00C03082B45
:102E0000FAD1C2E7001002400000FFF800ED00E038
:102E10000020024010B50446FFF7DAFC012806D175
:102E20003CB1FFF7D5FC012804F1FF34F8D004B120
:102E300010BD052010BD00BF38B51D4C4FF430202B
:102E4000E36913F0020F0CBFA5250025FFF7E2FF91
:102E5000042800D038BD174A174BA260A36023692D
:102E60004FF4302043F020032361236943F04003F3
:102E70002361FFF7CFFF042807D00528EAD041F6E9
:102E8000EF73226913402361E4E741F6DF732169A0
:102E90000A4A0B40236123694FF4005043F01003AA
:102EA00023611580FFF7B6FF0528E8D1D2E700BF00
:102EB0000020024023016745AB89EFCD00F8FF1FDA
:102EC000194B5B889BB2DA0701D401207047174A7F
:102ED0001748184910B550604FF40050516003F086
:102EE000FE04FFF797FF042813D0FFF7A5FF4FF468
:102EF0000050FFF78FFF042811D00C4A0A491369CC
:102F000043F080031361488800F0010080F0010065
:102F100010BD2046FFF7D4F80428EED0E5E72046A0
:102F2000FFF7CEF8E9E700BF00F8FF1F00200240DE
:102F300023016745AB89EFCD10B50F4B8AB05C78A4
:102F4000FEF7B4FF0D4B0E4AA3FB001311889B0B39
:102F50002246009103A80B4902F0B4F903A90A48DC
:102F6000FFF7A4FCFFF7CAFB084AD36883F0040309
:102F7000D3600AB010BD00BFEC01002073B2E7457A
:102F8000AE040020806700088C040020000C014083
:102F90002DE9F04F484B49491E68D1F804A0337918
:102FA000D1F80CC09F08CAEB0C080CF1FF3207F0F7
:102FB0000807C3F34203904593B047EA03074FEA7B
:102FC0001A2E0D682CDC91F808903D4C002AACBFFD
:102FD000114602EB0A0155F8213089EA1120B3F1BC
:102FE000FF3FC0B202F1FF324FEA810B16D0205CE6
:102FF0004840C0B2205C80EA1340C0B2205C80EA46
:103000001320C0B2205C5840C0B2205C83EA006349
:10301000C3F30740F92801D11B0E46D09045D5DDFA
:1030200000236FF0030B5BF8052000252C4613EB03
:103030001C2392B248BF7344013A0EF1FF3E0EFBCF
:10304000023828EAE878E0B2FFF75CF80134013092
:1030500018BF0135FA2CF6D173791A4A0993B3795E
:1030600014780893F3790BA80793327A2B460692CB
:10307000717A42460591717801F003010491F1786B
:103080000391B1780197029100940F4902F01AF967
:103090000BA90E4802F042F80BA90D48FFF706FCF9
:1030A000FFF72CFB13B0BDE8F08F0029B8BFFF314C
:1030B00009124B42B7E700BFB804002038010020D6
:1030C000186600084800002090670008C0670008E4
:1030D0008C04002008B540F29D110548FFF726FA40
:1030E000BDE8084040F2A7110248FFF71FBA00BF31
:1030F000C0040020E004002083790A3B032B02D89F
:1031000043792F2B00D070472DE9F04F85B003791C
:1031100000AF5B090CBFC41D0024FEF7C7FEBC4A0C
:1031200005461368C31AB3F5FA7F03D81437BD46B2
:10313000BDE8F08F94F800E0637800261560314612
:10314000102207F1080087F808E07B72BE7200F0D9
:1031500025FEC5B22946AF4801F0E0FF04F10208A0
:10316000AD4801F0DBFF4146AC4801F0D7FF0A2033
:1031700001F0ECFF062D00F0998028D8022D00F018
:10318000B7802ED9042D00F0CF8000F2BC80A44A75
:10319000A3781468402B20798CBF373B303BA14D7E
:1031A00020F00600DBB24FF4000640EA430323712F
:1031B000C5F88060237907F11001012201F8093D6B
:1031C0002620FFF7F1FC2E60FFF784FFAEE7092D04
:1031D00031D014D90B2D66D061D3FF2DA6D1FFF7C6
:1031E000D3FC4DB1012DA1D13046FF21FFF79EFC4C
:1031F000FDF7D8FFFFF7D0FAFFF7CAFE96E7072DD5
:103200001DD0082D92D140F2B110FEF7BFFFC0B221
:10321000012800F0BA80012140F2B110FFF770F9E7
:103220007F498148814B824A08601A60FDF7BAFFE6
:10323000FFF7B2FA7AE77F4B04221A6176E7A378A8
:10324000202B0DD0E57807F10C09484631461022B5
:103250003B73BE737D7300F0A1FD744B1B68D87087
:103260002379202B12D0714A402B10688CBF373B3A
:10327000303BDBB219010279DB0001F0200103F0E1
:10328000080322F028020B4313430371404600F069
:10329000E3FD032800F28580FFF71CFF46E7654B3E
:1032A00004225A6142E7FFF747FE3FE7A378202B4D
:1032B0000CD05E4A402B116888BF373B8A7898BF94
:1032C000303BDBB222F00F0213438B70E378202BEC
:1032D000E2D0564A402B116888BF373B8A7898BFA6
:1032E000303BDBB202F00F0242EA03138B70D3E7EC
:1032F000FF210120FFF71AFCFDF754FFFFF74CFAFE
:10330000FFF746FE12E7494AA3781168402B0A7975
:103310008CBF373B303B22F00602DBB242EA43036C
:103320000B71FFF7D7FE01E7A378202B00F0848014
:103330003B4A402B126888BF373B917898BF303B9F
:10334000DBB221F00F010B439370E378202B0AD0FE
:10335000402B91788CBF373B303BDBB201F00F0143
:1033600041EA031393702F4C4FF40005C4F88050CA
:10337000937807F11001012201F8043D2420FFF7A2
:1033800013FC2560FFF7A6FED0E6314640F2B110EF
:10339000FFF7B6F822492648244B234A08601A60F2
:1033A00044E70534204600F057FD4FEA600808F175
:1033B0000703002523F00703EA46A842ADEB030DFF
:1033C00083466E46BD73C8BF07F10C090EDD631955
:1033D0005878635D78731022002148463B7300F0F3
:1033E000DDFC6B100235AB45F054F0DC0F4BB8F14F
:1033F000000F1A6882F8018008DD33460432B044B9
:1034000013F8011B984502F8011FF9D1D54643E78F
:10341000CC040020D4670008E0670008E4670008D7
:10342000B804002000E100E0E0040020D004002007
:10343000C0040020000C0140014B1A6885E700BF62
:10344000B804002008B5094B0948197801F066FE58
:10345000FFF772FD6420FFF7CFF9FFF799FD6420B5
:10346000FFF7CAF9034B04225A6108BDEC010020A2
:10347000F0670008000C014070B4002302262F25DD
:10348000C67045710370437083700371C0F80730D4
:10349000C0F80B30C0F80F30C0F81330C0F8173048
:1034A000C0F81B30A0F81F30817170BC704700BF9E
:1034B00038B54AF6086045F204751F491F4B0A6883
:1034C0001F4C013283FB02E3A3EBE27303EB4303E4
:1034D000D31A012B0B602580608022D0022B15D0DF
:1034E0004BB14FF47A70FFF787F9164AD36883F02F
:1034F0000403D36038BD40F20D5321460622A38059
:103500001148FFF773FAFFF7F9F8EAE74BF21533C2
:1035100021460622A3800D48FFF768FAFFF7EEF870
:10352000DFE745F6114321460622A3800848FFF74E
:103530005DFAFFF7E3F8D4E74C00002056555555E7
:10354000B0040020000C0140340200204C01002097
:10355000680400200649074A074B9A42BEBF51F84B
:10356000040B42F8040BF8E704488047044800477E
:10357000DC6B000800000020C4000020112D0008B2
:10358000490100081F49204A002301E041F8043B9B
:103590009142FBD3FEF740F9FEE7FEE7FEE7FEE7C8
:1035A000FEE7FEE7FEE7FEE7FEE7FEE7FEE7FEE7F3
:1035B000FEE7FEE7FEE7FEE7FEE7FEE7FEE7FEE7E3
:1035C000FEE7FEE7FEE7FEE7FEE7FEE7FEE7FEE7D3
:1035D000FEE7FEE7FEE7FEE7FEE7FEE7FEE7FEE7C3
:1035E000FEE7FEE7FEE7FEE7FEE7FEE7FEE7FEE7B3
:1035F000FEE7FEE7FEE7FEE7FEE7FEE7FEE7FEE7A3
:10360000FEE7FEE7D0000020FC04002008B5074BD1
:10361000044613B10021AFF30080054B1868836A9C
:1036200003B19847204600F0FDFD00BF00000000F8
:10363000706800088A892DE9F041054610070C469C
:1036400059D44B68002B02DC0B6C002B17DDE66AAB
:10365000AEB102F48052002392B22F682B600AB1FF
:10366000606D15E0216A01232846B047411C0FD147
:103670002B686BB11D2B01D0162B03D12F600020BE
:10368000BDE8F081A38943F04003A381BDE8F08148
:10369000A3895A0705D56368C01A636B0BB1236C05
:1036A000C01A00230246E66A216A2846B047431C36
:1036B000A38906D129681D2939D8204ACA40D607CE
:1036C00035D5002262602269D904226004D5421CEB
:1036D00001D12B6803B96065616B2F600029CED0E2
:1036E00004F14403994202D0284600F04BF900202F
:1036F0006063BDE8F0810F69002FC0D093070E68AA
:103700000CBF4B690023C7EB06080F608B6002E01B
:103710000744C0EB0808B8F1000FB0DD43463A4655
:10372000216A2846A66AB0470028F1DCA38943F045
:103730004003A3814FF0FF30BDE8F081010040203D
:1037400038B50B6905460C46DBB118B183690BB976
:1037500000F060F80C4B9C4201D16C6808E00B4B08
:103760009C4201D1AC6803E0094B9C4208BFEC6865
:10377000B4F90C302BB121462846BDE83840FFF79C
:1037800059BF002038BD00BF0C6800082C68000835
:103790004C680008014900F0A9B800BF4137000893
:1037A00010B5044600230360436083608181436653
:1037B000C281036143618361194608225C3000F0D5
:1037C000D9F8054B24626362044BA362044BE362A5
:1037D000044B236310BD00BFF93A00081B3B0008EF
:1037E000533B0008773B000870B568234D1E5D43CE
:1037F0000E4605F1740100F011F9044640B10021B4
:1038000080E842000C30A06005F1680200F0B2F8D8
:10381000204670BD836910B5044633BB8364C3641E
:103820000365124B124A1B688262984204BF01234F
:10383000836100F01FF86060204600F01BF8A06074
:10384000204600F017F80022E06004216068FFF7CE
:10385000A7FF01220921A068FFF7A2FF022212217F
:10386000E068FFF79DFF0123A36110BD70680008A9
:1038700095370008F8B51C4B07461E68B36913B9A5
:103880003046FFF7C7FF4836B4687368013B04D47D
:10389000B4F90C507DB16834F8E733680BB1366881
:1038A000F2E704213846FFF79FFF30600028F6D189
:1038B0000C233B60F8BD4FF6FF73E3810123A38126
:1038C00065662560A560656025616561A561082262
:1038D000294604F15C0000F04DF86563A563A5641A
:1038E000E5642046F8BD00BF706800082DE9F84384
:1038F0008046894600F14804002694B1A5686768AF
:10390000013F0CD4AB89012B07D9B5F90E30013337
:1039100003D029464046C84706436835F0E7246887
:10392000EBE73046BDE8F8830E4B70B51E460E4CF3
:103930000025E41AA410A54204D056F82530984773
:103940000135F8E702F050FB084B094C1E46E41A1B
:10395000A4100025A54204D056F82530984701351B
:10396000F8E770BDB8000020B8000020B8000020C3
:10397000C000002003460244934202D003F8011B1A
:10398000FAE7704738B50546002944D051F8043CA1
:103990000C1F002BB8BFE41800F049FA1E4A136848
:1039A000114613B96360146030E0A3420DD9226858
:1039B000A018834201BF18685B6812182260636018
:1039C0000C6023E0A24203D813465A68002AF9D1BA
:1039D00018681918A1420BD1216801445818824275
:1039E000196013D110685268014419605A600DE0E3
:1039F00002D90C232B6009E021686018824201BFC4
:103A0000106852680918216062605C602846BDE851
:103A1000384000F00DBA38BDF004002070B5CD1C60
:103A200025F0030508350C2D38BF0C25002D064662
:103A300001DBA94202D90C23336046E000F0F7F91C
:103A4000234B1C681A462146A1B10B685B1B0ED4A0
:103A50000B2B03D90B60CC18CD501EE08C420BBF52
:103A600063684B681360636018BF0C4615E00C4632
:103A70004968E9E7174C23681BB9304600F02CF879
:103A800020602946304600F027F8431C18D0C41C9B
:103A900024F00304A0420DD12560304600F0C8F99F
:103AA00004F10B00231D20F00700C31A0ED05A4268
:103AB000E25070BD211A304600F00EF80130EBD113
:103AC0000C233360304600F0B3F9002070BD00BF16
:103AD000F0040020EC04002038B5064C0023054615
:103AE0000846236000F090FB431C02D1236803B119
:103AF0002B6038BDF804002010B50C46B1F90E104B
:103B000000F098F90028ABBF636DA3891B1823F45C
:103B10008053ACBF6365A38110BD2DE9F0411F4602
:103B20008B890546DB050C46164605D50223002287
:103B3000B1F90E1000F05EF9A389324623F48053E8
:103B4000A381B4F90E103B462846BDE8F04100F0D1
:103B50002FB910B50C46B1F90E1000F04BF9431C0B
:103B6000A38915BF606523F4805343F48053A38178
:103B700018BFA38110BDB1F90E1000F02BB90000E1
:103B80002DE9F0470F4680463F48D0F800903D466B
:103B900015F8014B09EB0400407800F0080000F034
:103BA000FF0608B12F46F2E72D2C03D1BD1C7C780F
:103BB000012603E02B2C04BF7C78BD1C13B1102B15
:103BC0000AD15BE0302C57D1287800F0DF0058286C
:103BD0004DD16C7810230235002E14BF4FF0004CED
:103BE0006FF0004CBCFBF3FA0027384603FB1ACCFD
:103BF00009EB040E9EF801E01EF0040F01D0303CEA
:103C00000BE01EF0030E1BD0BEF1010F0CBF4FF0F6
:103C1000370E4FF0570ECEEB0404A34210DDB7F180
:103C2000FF3F0AD0504506D801D1644503DC03FBB1
:103C30000040012701E04FF0FF3715F8014BD7E7AF
:103C40007B1C0CD1002E4FF0220314BF4FF000401C
:103C50006FF00040C8F800302AB9BDE8F08706B11F
:103C6000404272B107B1691E1160BDE8F08730248F
:103C7000002BB1D10823AFE70A23ADE7302CA3D046
:103C8000AAE7BDE8F08700BFB400002013460A464B
:103C9000014602480068FFF773BF00BFB000002074
:103CA0002DE9F0470E4680463B48D0F80090354657
:103CB00015F8014B09EB0400407800F0080000F013
:103CC000FF0708B12E46F2E72D2C03D1B51C7478FE
:103CD000012703E02B2C04BF7478B51C13B1102B03
:103CE0000AD153E0302C4FD1287800F0DF0058285B
:103CF00045D16C78102302354FF0FF3CBCFBF3FC40
:103D000003FB0CFA00266FEA0A0A304609EB040EA0
:103D10009EF801E01EF0040F01D0303C0BE01EF0D5
:103D2000030E1AD0BEF1010F0CBF4FF0370E4FF04B
:103D3000570ECEEB0404A3420FDD002E08DB6045D6
:103D400006D801D1544503DC03FB0040012601E005
:103D50004FF0FF3615F8014BD8E7002E07DA222383
:103D6000C8F800304FF0FF302AB9BDE8F08707B13E
:103D7000404272B106B1691E1160BDE8F08730247F
:103D8000002BB9D10823B7E70A23B5E7302CABD015
:103D9000B2E7BDE8F08700BFB400002013460A4632
:103DA000014602480068FFF77BBF00BFB00000205B
:103DB00038B5074C054608461146002222601A46CF
:103DC000FEF71AF8431C02D1236803B12B6038BDFB
:103DD000F804002038B5064C002305460846236049
:103DE00000F0FAF9431C02D1236803B12B6038BDFF
:103DF000F804002038B5074C054608461146002255
:103E000022601A4600F0F0F9431C02D1236803B186
:103E10002B6038BDF804002010B5431E0A449142BF
:103E200004D011F8014B03F8014FF8E710BD7047BB
:103E30007047000038B5074C054608461146002279
:103E400022601A4600F0D8F9431C02D1236803B15E
:103E50002B6038BDF8040020034613F8012B002A1C
:103E6000FBD1181A0138704781F0004102E000BF11
:103E700083F0004330B54FEA41044FEA430594EA2A
:103E8000050F08BF90EA020F1FBF54EA000C55EA65
:103E9000020C7FEA645C7FEA655C00F0E2804FEA36
:103EA0005454D4EB5555B8BF6D420CDD2C4480EA18
:103EB000020281EA030382EA000083EA010180EA48
:103EC000020281EA0303362D88BF30BD11F0004F96
:103ED0004FEA01314FF4801C4CEA113102D04042CC
:103EE00061EB410113F0004F4FEA03334CEA133307
:103EF00002D0524263EB430394EA050F00F0A7801F
:103F0000A4F10104D5F1200E0DDB02FA0EFC22FA19
:103F100005F2801841F1000103FA0EF2801843FA0D
:103F200005F359410EE0A5F120050EF1200E012AFE
:103F300003FA0EFC28BF4CF0020C43FA05F3C0183C
:103F400051EBE37101F0004507D54FF0000EDCF1B5
:103F5000000C7EEB00006EEB0101B1F5801F1BD35E
:103F6000B1F5001F0CD349085FEA30004FEA3C0C62
:103F700004F101044FEA445212F5800F80F09A8058
:103F8000BCF1004F08BF5FEA500C50F1000041EB5C
:103F9000045141EA050130BD5FEA4C0C404141EB60
:103FA000010111F4801FA4F10104E9D191F0000F87
:103FB00004BF01460020B1FA81F308BF2033A3F10A
:103FC0000B03B3F120020CDA0C3208DD02F1140C01
:103FD000C2F10C0201FA0CF021FA02F10CE002F13C
:103FE0001402D8BFC2F1200C01FA02F120FA0CFC35
:103FF000DCBF41EA0C019040E41AA2BF01EB04517E
:10400000294330BD6FEA04041F3C1CDA0C340EDC7B
:1040100004F11404C4F1200220FA04F001FA02F3BE
:1040200040EA030021FA04F345EA030130BDC4F17C
:104030000C04C4F1200220FA02F001FA04F340EA71
:104040000300294630BD21FA04F0294630BD94F022
:10405000000F83F4801306BF81F480110134013D09
:104060004EE77FEA645C18BF7FEA655C29D094EA7A
:10407000050F08BF90EA020F05D054EA000C04BFF8
:104080001946104630BD91EA030F1EBF00210020E3
:1040900030BD5FEA545C05D14000494128BF41F082
:1040A000004130BD14F580043CBF01F5801130BDE6
:1040B00001F0004545F0FE4141F470014FF0000071
:1040C00030BD7FEA645C1ABF194610467FEA655C22
:1040D0001CBF0B46024650EA013406BF52EA0335C4
:1040E00091EA030F41F4002130BD00BF90F0000FB2
:1040F00004BF0021704730B54FF4806404F13204EE
:104100004FF000054FF0000150E700BF90F0000FA6
:1041100004BF0021704730B54FF4806404F13204CD
:1041200010F0004548BF40424FF000013EE700BF9D
:1041300042004FEAE2014FEA31014FEA02701FBF2D
:1041400012F07F4393F07F4F81F06051704792F0FF
:10415000000F14BF93F07F4F704730B54FF4607479
:1041600001F0004521F0004120E700BF50EA0102C4
:1041700008BF704730B54FF000050AE050EA010271
:1041800008BF704730B511F0004502D5404261EBE1
:1041900041014FF4806404F132045FEA915C3FF422
:1041A000DCAE4FF003025FEADC0C18BF03325FEABB
:1041B000DC0C18BF033202EBDC02C2F1200300FA70
:1041C00003FC20FA02F001FA03FE40EA0E0021FA95
:1041D00002F11444C1E600BF024B58221A604FF0AE
:1041E000FF307047F8040020024B58221A604FF04D
:1041F000FF307047F8040020024B58221A604FF03D
:10420000FF307047F8040020044B0246196809B9D2
:1042100003491960186802441A607047F4040020CA
:1042200000050020FEE7000003685A004CBF43F081
:10423000004323F000431844704700BF61B32DE9E9
:10424000F84F01F1FF3A90460646D146002707EBAA
:10425000090404EBD4746410E50071190846FFF7F3
:10426000E3FFA245834605F10800304409D0FFF77B
:10427000DBFFC34500F1FF3005D8404509D2671C7C
:10428000E5E7C34505D9A74202D004F1FF39DEE7CF
:1042900000210846BDE8F88F08467047012807D07E
:1042A000022807D0044B00280CBF18460020704796
:1042B0000248704702487047B1490008B5490008F4
:1042C000B949000830B5254B83B004468D1E7BB339
:1042D00001A92846AFF3008020B301992A46FFF7D1
:1042E000ADFF0146F0B1FFF79FFF4B68A064012BC3
:1042F00012D0002B01F1040021DBFFF795FF002312
:10430000E06423650368002B1DDBFFF78DFF0023AE
:104310002061184603B030BD0023236105231846F1
:1043200003B030BD002323610923184603B030BD1C
:104330000B490C4B0846591AC9100191CEE70123CD
:10434000E0642365DEE7C3F30360FFF7A7FF0028FF
:10435000206114BF00230923DBE700BF0000000039
:10436000F4690008DC6B0008036810B5DA0704463E
:1043700006D49B0700F1480009D500F05BFC2368D8
:10438000590709D51A070ED5DB0613D510BD00F065
:1043900049FC23685907F5D404F1D00000F052FC21
:1043A00023681A07F0D404F5A87000F053FC2368C2
:1043B000DB06EBD404F5E870BDE8104000F08EBCDD
:1043C00003680BB1184470471846704709207047BE
:1043D000704700BF70B504460D4608E02A6C23699B
:1043E000626121462A4601209847082808D1296C95
:1043F0002046FFF767FF06460028EFD000F086FE54
:104400000728FBD13046296CFFF7E2FF281D00F09A
:10441000FDFB00BF2DE9F0470646ADF5727D03AD0B
:104420000C1D17460FCC0FC50FCC0FC50FCC0FC5F9
:1044300094E80F0002ACD6F80C80D6F8189085E806
:104440000F0000233046216C2360FFF73BFF054639
:10445000002F14BF0A2709277DB1A36B47F0100175
:104460008DE810023246636401203346C04778BBB2
:1044700028460DF5727DBDE8F087236C4FF4F0728D
:10448000736121467AA8FFF7C7FC33697AAA3146DF
:1044900038469847889B82468DE810023946636407
:1044A000324633460120C04790B94FF4F0727AA9E2
:1044B0002046FFF7B1FCBAF1080F06D1216C304657
:1044C000FFF700FF09270546C6E7BAF1070F04D03A
:1044D00009200DF5727DBDE8F0872846216CFFF7B5
:1044E00077FF03A800F092FB406C7047F0B5CB6BF0
:1044F000F9B00B640E1D01AD0F4604460FCE0FC57B
:104500000FCE0FC50FCE0FC596E80F004FF0FF3648
:1045100085E80F00009606E023696A462146984721
:104520000828054608D110992046FFF7CBFE002841
:10453000F2D0092079B0F0BD6846FFF715FF062DCF
:10454000F7D139462046FFF745FF00BF30B4DD6B99
:10455000C160826119461D64002230BC5AE700BF69
:1045600070B54369C6680B6426B10122FFF752FF9C
:1045700000F0CCFD03690A4604460D4601460220C0
:104580009847072807D0082803D129462046FFF777
:1045900021FF00F0BBFD3046296CFFF719FF281DF5
:1045A00000F034FBC2682AB110B4CC6B00220C645A
:1045B00010BC2FE79AE700BF704700BF836813B1B4
:1045C000014601201847704700B5042907D8DFE8E5
:1045D00001F00309060909000BB90F2A05D90220C9
:1045E0005DF804FB01205DF804FB00EB82025268D9
:1045F0001846019B1A605DF804FB00BF10B584B03B
:10460000002303AC0A4600941946FFF7DDFF039828
:1046100004B010BD00B5042907D8DFE801F0030994
:10462000060909000BB90F2A05D902205DF804FB21
:1046300001205DF804FB019900EB8202096818462D
:1046400051605DF804FB00BF10B584B004AC44F8C1
:10465000042D00230A4600941946FFF7DBFF04B03F
:1046600010BD00BFF0B5D36BADF50F7D1364151D04
:1046700017AC07460E460FCD0FC40FCD0FC40FCD9C
:104680000FC495E80F004FF0FF3584E80F00169532
:1046900011E016A86A46FFF7D7FF314616A8B847BB
:1046A00080B9049B16AA6946082098470528044645
:1046B00009D0092806D026996846FFF703FE0C2189
:1046C0000028E6D0092416A8FFF74EFE20460DF577
:1046D0000F7DF0BD2DE9F04FCC6C914622688BB078
:1046E00004340D460792089400F0030B1E46002B7D
:1046F00064D11202032307928DF825608DF82430CF
:104700002B6DBBF1020F08BFAC6B13F0010343D15B
:1047100000F00800C2B2039201932768002F3DD039
:10472000022E47D02788B4F802800434AB6C28F0FE
:10473000010A0F2148469A44FFF760FF824537D8A7
:1047400027F001039A4450452CBF002001204FEA76
:10475000480808F0020807F0010748EA0708B8F11E
:10476000010F41D038D3B8F1020F1DD1236823F0D7
:1047700000420292BBF1000F79D130B103990029B8
:1047800000F08180002A00F0A880002B79DB029BDA
:10479000013304EB8304C0E700230193022E40DDC4
:1047A000FFF714FE002842D009200BB0BDE8F08FBF
:1047B0000020CCE7D4F804800834B7E7022B9FDC54
:1047C000130CD9B212048DF82530022304EB8104B6
:1047D00007928DF8243093E7BBF1000F02D0002838
:1047E00040F0B080043498E7BBF1000F26D1B0B19F
:1047F00094E80C00991C4FEAD272D5D005F158010B
:104800000133069100F09480201DFFF7D9FD06AB1F
:1048100001462846AFF30080002840F0B8800834F5
:104820007BE707A9484600F0F3FA0028BCD1019BBA
:10483000002B5CD108200BB0BDE8F08F0D2148465D
:104840002F6AFFF7DBFE8742E9D1AB6A9C42E6D1D3
:104850002046FFF7E9FC0F2102464846FFF7F4FE29
:1048600048462A460021FFF7EFFE07209DE70D216D
:1048700048462F6AFFF7C2FE874248D02368002BC4
:1048800085DA043483E7029B3BB305F15803271D07
:10489000CDF810B0DDF80C80A346DDF808A01C466A
:1048A000059602E0B245B04616D038460694FFF7AA
:1048B00087FD06AB014600222846AFF3008008F1D1
:1048C000010604370028EDD0029B5C464345DDF825
:1048D00010B0059ED2D100E05C4648460D21FFF79E
:1048E0008DFE069B2862AC626B6206205DE70F219D
:1048F0004846FFF783FE0E2102464846FFF7A4FE16
:1049000048462A4A0F21FFF79FFE07204DE7AB6A72
:104910009C42B3D1042202990027A318A962EF6236
:104920002A636B632368BB421FDB012301932EE7DD
:1049300048460D21FFF762FE2862069B6B62AC625F
:10494000062032E72046FFF76FFC04340646AC63CE
:104950002846AFF3008000283FF426AF4846324691
:104960000F21FFF771FE07201FE70846013004EB17
:104970008000FFF759FC0F2102464846FFF764FE0E
:1049800048462A463946FFF75FFE07200DE70746EF
:104990000D214846FFF732FE022F2862CDD12B466B
:1049A000069A43F82C2F6B62C9E700BF0000000095
:1049B00000238FE601238DE602238BE6F0B5044643
:1049C000C5B004290DD8DFE801F057030C310F0002
:1049D000012B4FEA124695B266D17219102A40F2A5
:1049E0009F80022045B0F0BD002BFAD1102AF8D8E4
:1049F0002368D80600F1C98022AE3046019200F04B
:104A000077F9A06B019A0023012505FA03F1114201
:104A100003D00168043046F823100133042BF4D18D
:104A2000A063304600F05AF90020DBE7032BD8D111
:104A3000150C97B2EB19102BD3D823681E0700F181
:104A4000B88022AE30467F0000F026F906EBC502A2
:104A50007B1EA56B57B12946043A51F8040B013B64
:104A600042F8040F581CF8D105EB87053046A563C2
:104A700000F0F0F80020B5E7002BB2D1A56B97B29B
:104A8000201D012606FA03F1394203F1010302D089
:104A9000296804350160102B00F10400F2D112F4F2
:104AA00000503BD1A5639DE7052B9AD17719202FA4
:104AB00097D80F2E65D92F46002D48D12A460027BA
:104AC000002AA06B71DD00EBC202014644A800EB96
:104AD000C6008C3851F8045B914240F8045FF9D16C
:104AE000084697B13246102E44A938BF102201EB78
:104AF000C202A2F5C4727900043A00EB810150F8B9
:104B0000045B814242F8045FF9D1012B47D00F2E9C
:104B1000A16332D917B102A800F094F8002061E730
:104B20000F2E3FF65EAF00272268D1070DD522F089
:104B30000101052B21600193204652D022F003028F
:104B400040F8482B00F072F8019B002F51D02268EA
:104B5000510736D4012B3ED00F2E06D822A8019340
:104B600000F06CF8019B002FA8D002A8019300F080
:104B70006DF8019BC6F11002A2E722A800F05AF8D6
:104B8000C8E7102FCFD9103FCEE723F010032360E2
:104B900004F5E870019200F0ABF8019A2CE70431BB
:104BA000A16322A800F03EF8B8E7002F9AD1014691
:104BB000ABE723F00803236004F5A87000F06CF85D
:104BC0003FE7204622F0040240F8D02B019300F08A
:104BD0003DF8019BBEE722A8019300F027F8019B56
:104BE000C8E741F0020140F8481B00F027F8019B9C
:104BF000ABE7012B03D00F2E3FF660AFAEE722A844
:104C0000019300F013F8019B58E700BF00F1340155
:104C100091E838009C46A6464CF8045D90E8FF0FEA
:104C2000E54600BD90EC210B704700BF80EC210BE6
:104C3000704700BF90EC200B704700BF80EC200B4A
:104C4000704700BFD0EC200B704700BFC0EC200BBA
:104C5000704700BFF0EC0201F0EC0211F0EC022111
:104C6000F0EC0231F0EC0241F0EC0251F0EC0261A8
:104C7000F0EC0271F0EC0281F0EC0291F0EC02A198
:104C8000F0EC02B1F0EC02C1F0EC02D1F0EC02E188
:104C9000F0EC02F1704700BFE0EC0201E0EC021121
:104CA000E0EC0221E0EC0231E0EC0241E0EC0251E8
:104CB000E0EC0261E0EC0271E0EC0281E0EC0291D8
:104CC000E0EC02A1E0EC02B1E0EC02C1E0EC02D1C8
:104CD000E0EC02E1E0EC02F1704700BFB0FC0181C2
:104CE000B0FC0191B0FC01A1B0FC01B1704700BF64
:104CF000A0FC0181A0FC0191A0FC01A1A0FC01B1DC
:104D0000704700BFEC4600B52DE900502DE9FF1FAC
:104D10004FF000032DE90C0001A9FFF7E7FBDDF8D8
:104D200040E012B0704700BFEC4600B52DE90050DE
:104D30002DE9FF1F4FF000032DE90C0001A9FFF73B
:104D40000FFCDDF840E012B0704700BFEC4600B544
:104D50002DE900502DE9FF1F4FF000032DE90C0055
:104D600001A9FFF71FFCDDF840E012B0704700BF5B
:104D7000EC4600B52DE900502DE9FF1F4FF0000370
:104D80002DE90C0001ABFFF7E1FBDDF840E012B0CC
:104D9000704700BFEC4600B52DE900502DE9FF1F1C
:104DA0004FF000032DE90C0001AAFFF75BFCDDF8D2
:104DB00040E012B0704700BF037A1BB9437A43B991
:104DC000B02070475A1E036802721A020260180E61
:104DD00070474268013B10B4437213680321141DED
:104DE00001721A024460026010BC180E704700BFC6
:104DF00000B585B003AA0023009219460C22FFF7E4
:104E0000E3FB039805B05DF804FB00BFF0E700BFCB
:104E10002DE9F04306460D4685B04FF000082846C0
:104E2000FFF7CAFFB028044600F0B48020F07F03EB
:104E300013F0FF0320D000F0F003802B7AD0902BEA
:104E400035D0A02B48D0B02B5CD0C02B00F089808F
:104E500000F0F803D02B0BD100F00702013242F42E
:104E60000022052301213046FFF7A8FD0028D6D0F7
:104E7000092005B0BDE8F0830DF10C091946870043
:104E8000CDF800900D223046FFF79EFBFFB2039B4A
:104E9000043760064CBFDF1BFF180023CDF80090DD
:104EA00019460D2230460397FFF7B4FBB7E700F031
:104EB0000D030D2BDCD003AF002300F00F021946C9
:104EC00000973046FFF780FB0023009719460D221C
:104ED0003046FFF79FFBA2E7C2434FF47F6302F027
:104EE000070243FA02F2010702EA03024FF000034D
:104EF00048BF42F4804219463046FFF75FFD002864
:104F0000B6D18CE7B1284AD0B22853D0B32800F0EC
:104F1000818000F0FC03B42BAAD000F0070201321C
:104F2000012342F4002219463046FFF747FD0028CE
:104F30009ED174E72846FFF73FFF24022043B0F5D7
:104F4000004F95D004010023A2B219463046FFF766
:104F500035FD00288CD114F4004F18BF4FF0010824
:104F60005DE7C62862D0C7286CD000F0F803C02BDC
:104F70007BD0C82800F09180C9287FF479AF2846FB
:104F8000FFF71AFF020300F00F0002F47022013055
:104F9000024366E7B8F1000F6ED0002069E72846AB
:104FA000FFF70AFF024600283FF462AF10F0F0035B
:104FB000B9D05DE700230DF10C090D221946CDF89B
:104FC00000903046FFF700FB2846FFF7F5FE02068B
:104FD0004FF002040CD5039B00F07F00A040034477
:104FE00028460393FFF7E8FE030604F10704F2D412
:104FF000039B00F07F0000FA04F203F50174002324
:105000001444CDF8009019460D2230460394FFF762
:1050100001FB04E72846FFF7CFFE010300F00F0075
:1050200001F47021421C01230A437CE72846FFF764
:10503000C3FE010300F00F0001F47021421C0323A2
:105040000A4370E72846FFF7B7FE024600283FF400
:105050000FAF10F0F0037FF40BAF04213046FFF7E1
:10506000ADFC00287FF404AFD9E600F00F02013256
:10507000032342F4202256E703AC43460E22414666
:1050800000943046FFF7A0FA0094304643460F22C2
:105090004146FFF7BFFA4046EBE62846FFF78CFE95
:1050A00000F0F00200F00F031032013343EA023245
:1050B000D7E600BF10B5C36C84B003205A688DF8E2
:1050C0000C00DC7912020833084601A901928DF820
:1050D0000D400293FFF79CFE04B010BD08B5FFF72A
:1050E00095FE806C08BD00BF08B5FFF78FFEC36C4E
:1050F000D87903EB8000083008BD00BF08B500F088
:1051000005F800BF08B5FFF7F9FF00BF08B5062096
:1051100000F0BCF80120FFF785F800000FB40A4B3F
:1051200013B51C6824B1A36913B92046FEF772FBBE
:1051300005AB049AA1682046019300F0CBFB02B0B6
:10514000BDE8104004B07047B000002038B5084BEF
:1051500005461C6824B1A36913B92046FEF75AFB23
:10516000A26829462046BDE8384000F06BBE00BF6B
:10517000B000002070B50E46054618B183690BB922
:10518000FEF748FBAB69AC6813B92846FEF742FB53
:10519000224B9C4201D16C6808E0214B9C4201D11A
:1051A000AC6803E01F4B9C4208BFEC68A3891B0757
:1051B00001D523693BB92146284600F047F910B1D3
:1051C0004FF0FF3070BD013EA36816F8011F013B90
:1051D000A36091B1002B04DAA269934206DB0A298D
:1051E00004D023685A1C22601970EDE72246284635
:1051F00000F0D8F80130E7D1E2E7002B08DA2246C8
:105200000A21284600F0CEF80130D9D00A2070BD1E
:1052100023680A205A1C2260187070BD0C680008B0
:105220002C6800084C680008024B01461868FFF71C
:10523000A1BF00BFB00000201F2938B504460D46AD
:1052400004D9162303604FF0FF3038BD426C12B111
:1052500052F821304BB9204600F032F82A46014678
:105260002046BDE8384000F019B8012B0CD0591C7D
:1052700003D116230360012038BD0024284642F8DC
:1052800025409847204638BD002038BD024B0146D6
:105290001868FFF7D1BF00BFB000002038B5074C39
:1052A0000023054608461146236000F095FE431C86
:1052B00002D1236803B12B6038BD00BFF804002081
:1052C00000F07ABE0EB400B54FF402719CB0ADF898
:1052D00014106FF00041049107914FF6FF711DAB60
:1052E00002900690084853F8042BADF81610006899
:1052F00002A9019300F0D2F9029B00221A701CB09F
:105300005DF804EB03B07047B0000020034610B511
:1053100042B111F8014B013A03F8014B002CF7D1CF
:105320001A4400E010BD934202D003F8014BFAE7A3
:1053300010BD30B5141E05469BB0184604DA8B2309
:105340002B604FF0FF301DE04FF40273ADF80C30CE
:105350000CBF234604F1FF33029305934FF6FF730E
:1053600000910491ADF80E3002461E9B6946284616
:1053700000F094F9431CBCBF8B232B6014B1009B3D
:1053800000221A701BB030BD07B5009313460A46C1
:10539000014603480068FFF7CCFF03B05DF804FB4B
:1053A000B0000020F8B50F461446064618B18369D0
:1053B0000BB9FEF72FFA224B9C4201D1746808E02A
:1053C000204B9C4201D1B46803E01F4B9C4208BFB4
:1053D000F468A369A360A3891A0709D523693BB1BF
:1053E00023682069FDB2181A636998420FDB08E050
:1053F0002146304600F02AF80028F1D04FF0FF3067
:10540000F8BD21463046FEF79BF90028F6D1A36887
:10541000013BA36023685A1C22601F706269431C11
:10542000934204D0A389DB0707D50A2D05D1214675
:105430003046FEF785F90028E0D12846F8BD00BFC8
:105440000C6800082C6800084C680008324B70B5E6
:105450001D6806460C4625B1AB6913B92846FEF710
:10546000D9F92E4B9C4201D16C6808E02C4B9C4230
:1054700001D1AC6803E02B4B9C4208BFEC68B4F947
:105480000C309AB215071DD4D00602D4092232601E
:105490003AE0510712D5616B41B104F144039942DE
:1054A00002D03046FEF76EFA00236363A38923F02F
:1054B0002403A3810023636023692360A38943F04D
:1054C0000803A38123694BB9A38903F42073B3F5BF
:1054D000007F03D02146304600F04AF8A28912F03E
:1054E000010305D00023A36063695B42A36103E06D
:1054F000920758BF6369A36023695BB9B4F90C30A4
:1055000003F0800080B230B143F04003A3814FF03C
:10551000FF3070BD002070BDB00000200C68000896
:105520002C6800084C68000870B50E46B1F90E10E2
:1055300090B0002914461D4606DA00232B60B3897B
:105540001A060ED540230EE001AA00F0B1FC002897
:10555000F3DB029A02F47042A2F500535A425A4118
:105560002A604FF480630020236010B070BD0000FB
:105570008B8973B59E0705460C4610D401AB6A466D
:10558000FFF7D2FF009906462846FEF747FA68B9AA
:10559000B4F90C309A0522D443F00203A38104F13C
:1055A0004703236023610123636118E00D4BAB6265
:1055B000A389206043F08003A381009B2061636185
:1055C000019B4BB1B4F90E10284600F083FC18B1D2
:1055D000A38943F00103A381A0893043A08102B0D5
:1055E00070BD00BF953700082DE9F0478E688246F0
:1055F0009E420C46914698463ED88A8912F4906F96
:105600003AD02568096902236F1A656905EB4505DB
:1056100095FBF3F57B1C43449D4238BF1D46530563
:105620000FD52946FEF7FAF9064698B13A462169A0
:10563000FEF7F2FBA38923F4906343F08003A38178
:1056400013E02A4600F07FFC064670B921695046F7
:10565000FEF798F90C23CAF80030A3894FF0FF3009
:1056600043F04003A381BDE8F08726613E442660F5
:1056700046466561ED1BA560464528BF464649463E
:105680003246206800F044FCA36800209B1BA36006
:1056900023681E442660BDE8F08700002DE9F04F26
:1056A0009DB003938B8980461C060D4616460DD58A
:1056B0000B695BB94021FEF7B1F92860286118B980
:1056C0000C23C8F80030CDE040236B610023099320
:1056D00020238DF82930DFF89CB130238DF82A3053
:1056E00037463C4614F8013B1BB9B7EB060910D00E
:1056F00003E0252BF9D02746F3E74B4632462946EF
:105700004046FFF771FF013000F0A780099B4B4432
:1057100009933B78002B00F0A08000234FF0FF326C
:1057200004930793059206938DF853301A9301263C
:10573000052221784E4800F0DDFB671C049B38B140
:105740004B4A3C46801A06FA00F018430490EFE7F3
:10575000D90644BF20228DF853201A0744BF2B22BC
:105760008DF8532022782A2A03D0079A00210A2094
:105770000BE0039A111D12680391002A10DA5242BD
:1057800043F00200079204900BE027463B78013477
:10579000303B092B03D800FB02320121F5E701B1B0
:1057A00007923B782E2B1ED17B782A2B0AD1039BA4
:1057B00002371A1D1B680392002BB8BF4FF0FF334E
:1057C000059310E0002319460593781C0A24074628
:1057D0003A780130303A092A03D804FB0121012329
:1057E000F5E703B1059103223978224800F082FBE6
:1057F00040B14023CBEB000003FA00F0049B0137DB
:1058000018430490397806221B487E1C8DF8281016
:1058100000F070FB88B1194B33B9039B073323F0B9
:1058200007030833039314E003AB00932A46144B99
:1058300004A94046AFF3008007E003AB00932A467B
:105840000F4B04A9404600F0D7F9B0F1FF3F824664
:1058500003D0099B5344099342E7AB895B0601D40B
:10586000099801E04FF0FF301DB0BDE8F08F00BF98
:10587000756900087B6900087F6900080000000066
:10588000E9550008936810B4013B002B936008DAD7
:105890009469A34202DBCBB20A2B02D110BCFFF702
:1058A00081BD1368581C10601970C8B210BC7047D5
:1058B000F8B506460F461446D518AC4208D03A460D
:1058C00014F8011B3046FFF7DDFF431CF5D100E063
:1058D0000020F8BD2DE9F04F9DB00C46174603930C
:1058E000064618B183690BB9FDF794FF7F4B9C42C4
:1058F00001D1746808E07E4B9C4201D1B46803E09A
:105900007C4B9C4208BFF468A38918070CD5236917
:1059100053B10023099320238DF8293030238DF8CB
:105920002A30DFF8D4B144E021463046FFF78EFD3F
:105930000028EED04FF0FF30D5E0039A111D126819
:105940000391002A80F28C80524243F002000792B9
:10595000049098F800302E2B00F08480032298F8F1
:105960000010654800F0C6FA48B14023CBEB0000B8
:1059700003FA00F0049B08F101081843049098F81A
:10598000001006225D4808F101078DF8281000F08C
:10599000B1FA002800F09580594B002B40F0888028
:1059A000039B073323F0070308330393099B5344F6
:1059B0000993B846454615F8013B1BB9B8EB0709F2
:1059C0000FD003E0252BF9D0A846F3E74B463A4623
:1059D00021463046FFF76CFF01307FD0099B4B44D6
:1059E000099398F80030002B78D000234FF0FF3255
:1059F00004930793059206938DF853301A93012769
:105A0000052229783F4800F075FA05F10108049B4A
:105A100038B13C4A4546801A07FA00F01843049012
:105A2000EEE7D90644BF20228DF853201A0744BF61
:105A30002B228DF853202A782A2A3FF47EAF079A2A
:105A400000210A20A84698F800300135303B092B88
:105A500003D800FB02320121F4E700293FF479AFBB
:105A6000079276E798F801302A2B0BD1039B08F1B7
:105A700002081A1D1B680392002BB8BF4FF0FF33BA
:105A800005936BE700231946059308F101000A25E9
:105A9000804698F800200130303A092A03D805FBE7
:105AA00001210123F4E7002B3FF458AF059155E79E
:105AB00003AB00932246144B04A93046AFF3008099
:105AC00007E003AB009322460F4B04A9304600F0D9
:105AD00093F8B0F1FF3F82467FF468AFA3895B067D
